{
  "contractName": "ExpenseTrackerSelfJoin",
  "abi": [
    {
      "inputs": [
        {
          "internalType": "address",
          "name": "tokenAddress",
          "type": "address"
        }
      ],
      "stateMutability": "nonpayable",
      "type": "constructor"
    },
    {
      "anonymous": false,
      "inputs": [],
      "name": "CalculationFinished",
      "type": "event"
    },
    {
      "anonymous": false,
      "inputs": [
        {
          "indexed": true,
          "internalType": "address",
          "name": "previousOwner",
          "type": "address"
        },
        {
          "indexed": true,
          "internalType": "address",
          "name": "newOwner",
          "type": "address"
        }
      ],
      "name": "OwnershipTransferred",
      "type": "event"
    },
    {
      "anonymous": false,
      "inputs": [
        {
          "indexed": false,
          "internalType": "address",
          "name": "from",
          "type": "address"
        },
        {
          "indexed": false,
          "internalType": "address",
          "name": "to",
          "type": "address"
        },
        {
          "indexed": false,
          "internalType": "uint256",
          "name": "amount",
          "type": "uint256"
        }
      ],
      "name": "Transaction",
      "type": "event"
    },
    {
      "inputs": [
        {
          "internalType": "uint256",
          "name": "",
          "type": "uint256"
        }
      ],
      "name": "finalExpenses",
      "outputs": [
        {
          "internalType": "address",
          "name": "debtorAddr",
          "type": "address"
        },
        {
          "internalType": "address",
          "name": "payerAddr",
          "type": "address"
        },
        {
          "internalType": "int256",
          "name": "amount",
          "type": "int256"
        }
      ],
      "stateMutability": "view",
      "type": "function",
      "constant": true
    },
    {
      "inputs": [
        {
          "internalType": "uint256",
          "name": "",
          "type": "uint256"
        }
      ],
      "name": "initialExpenses",
      "outputs": [
        {
          "internalType": "address",
          "name": "debtorAddr",
          "type": "address"
        },
        {
          "internalType": "address",
          "name": "payerAddr",
          "type": "address"
        },
        {
          "internalType": "int256",
          "name": "amount",
          "type": "int256"
        }
      ],
      "stateMutability": "view",
      "type": "function",
      "constant": true
    },
    {
      "inputs": [
        {
          "internalType": "uint256",
          "name": "",
          "type": "uint256"
        }
      ],
      "name": "iterativeParticipants",
      "outputs": [
        {
          "internalType": "address",
          "name": "addr",
          "type": "address"
        },
        {
          "internalType": "string",
          "name": "name",
          "type": "string"
        }
      ],
      "stateMutability": "view",
      "type": "function",
      "constant": true
    },
    {
      "inputs": [],
      "name": "owner",
      "outputs": [
        {
          "internalType": "address",
          "name": "",
          "type": "address"
        }
      ],
      "stateMutability": "view",
      "type": "function",
      "constant": true
    },
    {
      "inputs": [
        {
          "internalType": "address",
          "name": "",
          "type": "address"
        }
      ],
      "name": "participants",
      "outputs": [
        {
          "internalType": "uint256",
          "name": "id",
          "type": "uint256"
        },
        {
          "internalType": "bool",
          "name": "valid",
          "type": "bool"
        }
      ],
      "stateMutability": "view",
      "type": "function",
      "constant": true
    },
    {
      "inputs": [],
      "name": "participantsCounter",
      "outputs": [
        {
          "internalType": "uint256",
          "name": "_value",
          "type": "uint256"
        }
      ],
      "stateMutability": "view",
      "type": "function",
      "constant": true
    },
    {
      "inputs": [],
      "name": "renounceOwnership",
      "outputs": [],
      "stateMutability": "nonpayable",
      "type": "function"
    },
    {
      "inputs": [],
      "name": "token",
      "outputs": [
        {
          "internalType": "contract TOK",
          "name": "",
          "type": "address"
        }
      ],
      "stateMutability": "view",
      "type": "function",
      "constant": true
    },
    {
      "inputs": [
        {
          "internalType": "address",
          "name": "newOwner",
          "type": "address"
        }
      ],
      "name": "transferOwnership",
      "outputs": [],
      "stateMutability": "nonpayable",
      "type": "function"
    },
    {
      "inputs": [
        {
          "internalType": "string",
          "name": "name",
          "type": "string"
        }
      ],
      "name": "addParticipant",
      "outputs": [],
      "stateMutability": "nonpayable",
      "type": "function"
    },
    {
      "inputs": [
        {
          "internalType": "address",
          "name": "debtorAddr",
          "type": "address"
        },
        {
          "internalType": "address",
          "name": "payerAddr",
          "type": "address"
        },
        {
          "internalType": "int256",
          "name": "amount",
          "type": "int256"
        }
      ],
      "name": "addExpense",
      "outputs": [],
      "stateMutability": "nonpayable",
      "type": "function"
    },
    {
      "inputs": [],
      "name": "calculate",
      "outputs": [],
      "stateMutability": "nonpayable",
      "type": "function"
    },
    {
      "inputs": [],
      "name": "getInfo",
      "outputs": [
        {
          "internalType": "uint256",
          "name": "",
          "type": "uint256"
        },
        {
          "internalType": "address",
          "name": "",
          "type": "address"
        },
        {
          "internalType": "address[]",
          "name": "",
          "type": "address[]"
        },
        {
          "internalType": "string[]",
          "name": "",
          "type": "string[]"
        },
        {
          "internalType": "uint256[]",
          "name": "",
          "type": "uint256[]"
        },
        {
          "internalType": "address[]",
          "name": "",
          "type": "address[]"
        },
        {
          "internalType": "address[]",
          "name": "",
          "type": "address[]"
        },
        {
          "internalType": "int256[]",
          "name": "",
          "type": "int256[]"
        }
      ],
      "stateMutability": "view",
      "type": "function",
      "constant": true
    }
  ],
  "bytecode": "0x608060405234801561001057600080fd5b5060405162001bc738038062001bc7833981016040819052610031916100af565b61003a3361005f565b600280546001600160a01b0319166001600160a01b03929092169190911790556100df565b600080546001600160a01b038381166001600160a01b0319831681178455604051919092169283917f8be0079c531659141344cd1fd0a4f28419497f9722a3daafe3b4186f6b6457e09190a35050565b6000602082840312156100c157600080fd5b81516001600160a01b03811681146100d857600080fd5b9392505050565b611ad880620000ef6000396000f3fe608060405234801561001057600080fd5b50600436106100cf5760003560e01c80638da5cb5b1161008c578063ca77ab6511610066578063ca77ab65146101fb578063f2fde38b14610203578063f30b506914610216578063fc0c546a1461022957600080fd5b80638da5cb5b1461017c5780638e52f97b146101a1578063a03e31d1146101c257600080fd5b806309e69ede146100d4578063364de8b6146101185780634572bc881461012d5780635a9b0b89146101455780636608868714610161578063715018a614610174575b600080fd5b6100fe6100e2366004611612565b6003602052600090815260409020805460019091015460ff1682565b604080519283529015156020830152015b60405180910390f35b61012b61012636600461168b565b61023c565b005b6001546101379081565b60405190815260200161010f565b61014d610361565b60405161010f989796959493929190611890565b61012b61016f36600461162d565b610868565b61012b610bc9565b6000546001600160a01b03165b6040516001600160a01b03909116815260200161010f565b6101b46101af36600461173c565b610bff565b60405161010f92919061182f565b6101d56101d036600461173c565b610cae565b604080516001600160a01b0394851681529390921660208401529082015260600161010f565b61012b610cee565b61012b610211366004611612565b61114c565b6101d561022436600461173c565b6111e7565b600254610189906001600160a01b031681565b3360009081526003602052604090206001015460ff16156102b65760405162461bcd60e51b815260206004820152602960248201527f457870656e7365547261636b65723a205041525449434950414e545f414c524560448201526810511657d05111115160ba1b60648201526084015b60405180910390fd5b60405180604001604052806102ca60015490565b8152600160209182018190523360008181526003845260408082208651815595850151958401805460ff191696151596909617909555845180860186529182528184018681528354825260048552949020815181546001600160a01b0319166001600160a01b039091161781559351805191948594909361035293908501929091019061155d565b50506001805481019055505050565b600080606080606080606080600061037860015490565b67ffffffffffffffff81111561039057610390611a8c565b6040519080825280602002602001820160405280156103b9578160200160208202803683370190505b50905060006103c760015490565b67ffffffffffffffff8111156103df576103df611a8c565b60405190808252806020026020018201604052801561041257816020015b60608152602001906001900390816103fd5790505b509050600061042060015490565b67ffffffffffffffff81111561043857610438611a8c565b604051908082528060200260200182016040528015610461578160200160208202803683370190505b50905060005b60015481101561062f5760008181526004602052604090205484516001600160a01b03909116908590839081106104a0576104a0611a76565b6001600160a01b03909216602092830291909101820152600082815260049091526040902060010180546104d3906119ed565b80601f01602080910402602001604051908101604052809291908181526020018280546104ff906119ed565b801561054c5780601f106105215761010080835404028352916020019161054c565b820191906000526020600020905b81548152906001019060200180831161052f57829003601f168201915b505050505083828151811061056357610563611a76565b60209081029190910181019190915260025460008381526004928390526040908190205490516370a0823160e01b81526001600160a01b039182169381019390935216906370a082319060240160206040518083038186803b1580156105c857600080fd5b505afa1580156105dc573d6000803e3d6000fd5b505050506040513d601f19601f820116820180604052508101906106009190611755565b82828151811061061257610612611a76565b60209081029190910101528061062781611a28565b915050610467565b5060055460009067ffffffffffffffff81111561064e5761064e611a8c565b604051908082528060200260200182016040528015610677578160200160208202803683370190505b5060055490915060009067ffffffffffffffff81111561069957610699611a8c565b6040519080825280602002602001820160405280156106c2578160200160208202803683370190505b5060055490915060009067ffffffffffffffff8111156106e4576106e4611a8c565b60405190808252806020026020018201604052801561070d578160200160208202803683370190505b50905060005b60055481101561083f576005818154811061073057610730611a76565b600091825260209091206003909102015484516001600160a01b039091169085908390811061076157610761611a76565b60200260200101906001600160a01b031690816001600160a01b0316815250506005818154811061079457610794611a76565b906000526020600020906003020160010160009054906101000a90046001600160a01b03168382815181106107cb576107cb611a76565b60200260200101906001600160a01b031690816001600160a01b031681525050600581815481106107fe576107fe611a76565b90600052602060002090600302016002015482828151811061082257610822611a76565b60209081029190910101528061083781611a28565b915050610713565b50600154600254909f6001600160a01b039091169e50959c50939a509198509650945092509050565b6000546001600160a01b031633146108925760405162461bcd60e51b81526004016102ad9061185b565b6001600160a01b03831660009081526003602052604090206001015460ff1680156108d857506001600160a01b03821660009081526003602052604090206001015460ff165b6109335760405162461bcd60e51b815260206004820152602660248201527f457870656e7365547261636b65723a205041525449434950414e54535f4e4f5460448201526517d05111115160d21b60648201526084016102ad565b6002546040516370a0823160e01b81526001600160a01b038581166004830152909116906370a082319060240160206040518083038186803b15801561097857600080fd5b505afa15801561098c573d6000803e3d6000fd5b505050506040513d601f19601f820116820180604052508101906109b09190611755565b811315610a195760405162461bcd60e51b815260206004820152603160248201527f457870656e7365547261636b65723a2042414c414e43455f4f465f444542544f6044820152701497d31154d4d7d512105397d111509255607a1b60648201526084016102ad565b600254604051636eb1769f60e11b81526001600160a01b0385811660048301523060248301529091169063dd62ed3e9060440160206040518083038186803b158015610a6457600080fd5b505afa158015610a78573d6000803e3d6000fd5b505050506040513d601f19601f82011682018060405250810190610a9c9190611755565b811315610af75760405162461bcd60e51b8152602060048201526024808201527f457870656e7365547261636b65723a204e4f545f454e4f5547485f414c4c4f57604482015263414e434560e01b60648201526084016102ad565b604080516060810182526001600160a01b0394851681529284166020840190815290830191825260058054600181018255600091909152925160039093027f036b6384b5eca791c62761152d0c79bb0604c104a5fb6f4eb0703f3154bb3db0810180549486166001600160a01b031995861617905590517f036b6384b5eca791c62761152d0c79bb0604c104a5fb6f4eb0703f3154bb3db1820180549190951693169290921790925590517f036b6384b5eca791c62761152d0c79bb0604c104a5fb6f4eb0703f3154bb3db290910155565b6000546001600160a01b03163314610bf35760405162461bcd60e51b81526004016102ad9061185b565b610bfd60006111f7565b565b600460205260009081526040902080546001820180546001600160a01b039092169291610c2b906119ed565b80601f0160208091040260200160405190810160405280929190818152602001828054610c57906119ed565b8015610ca45780601f10610c7957610100808354040283529160200191610ca4565b820191906000526020600020905b815481529060010190602001808311610c8757829003601f168201915b5050505050905082565b60058181548110610cbe57600080fd5b60009182526020909120600390910201805460018201546002909201546001600160a01b03918216935091169083565b6000546001600160a01b03163314610d185760405162461bcd60e51b81526004016102ad9061185b565b6000610d2360015490565b67ffffffffffffffff811115610d3b57610d3b611a8c565b604051908082528060200260200182016040528015610d64578160200160208202803683370190505b50905060005b600154811015610da5576000828281518110610d8857610d88611a76565b602090810291909101015280610d9d81611a28565b915050610d6a565b5060005b600554811015610ee65760058181548110610dc657610dc6611a76565b906000526020600020906003020160020154826003600060058581548110610df057610df0611a76565b600091825260208083206003909202909101546001600160a01b0316835282019290925260400190205481518110610e2a57610e2a611a76565b60200260200101818151610e3e91906119ae565b9052506005805482908110610e5557610e55611a76565b906000526020600020906003020160020154826003600060058581548110610e7f57610e7f611a76565b60009182526020808320600160039093020191909101546001600160a01b0316835282019290925260400190205481518110610ebd57610ebd611a76565b60200260200101818151610ed1919061196d565b90525080610ede81611a28565b915050610da9565b506000805b610ef483611247565b9150610eff836112ab565b90506000610f48848481518110610f1857610f18611a76565b6020026020010151858481518110610f3257610f32611a76565b6020026020010151610f4390611a43565b611309565b905080848481518110610f5d57610f5d611a76565b60200260200101818151610f7191906119ae565b90525083518190859084908110610f8a57610f8a611a76565b60200260200101818151610f9e919061196d565b90525060408051606081018252600084815260046020818152848320546001600160a01b039081168552888452918152848320548216908401908152938301948552600680546001810182559252915160039091027ff652222313e28459528d920b65115c16c04f3efc82aaedc97be59f3f377c0d3f810180549284166001600160a01b031993841617905592517ff652222313e28459528d920b65115c16c04f3efc82aaedc97be59f3f377c0d408401805491909316911617905590517ff652222313e28459528d920b65115c16c04f3efc82aaedc97be59f3f377c0d4190910155825183908390811061109557611095611a76565b602002602001015160001415806110c657508281815181106110b9576110b9611a76565b6020026020010151600014155b610eeb576110d2611321565b61111e5760405162461bcd60e51b815260206004820152601f60248201527f457870656e7365547261636b65723a205452414e534645525f4641494c45440060448201526064016102ad565b6040517fc8f9da615631f09888fe5c6596c3fafaa6608feaf329f75a5d92bdab1b6438b290600090a1505050565b6000546001600160a01b031633146111765760405162461bcd60e51b81526004016102ad9061185b565b6001600160a01b0381166111db5760405162461bcd60e51b815260206004820152602660248201527f4f776e61626c653a206e6577206f776e657220697320746865207a65726f206160448201526564647265737360d01b60648201526084016102ad565b6111e4816111f7565b50565b60068181548110610cbe57600080fd5b600080546001600160a01b038381166001600160a01b0319831681178455604051919092169283917f8be0079c531659141344cd1fd0a4f28419497f9722a3daafe3b4186f6b6457e09190a35050565b600080805b83518110156112a45783828151811061126757611267611a76565b602002602001015184828151811061128157611281611a76565b602002602001015112611292578091505b8061129c81611a28565b91505061124c565b5092915050565b600080805b83518110156112a4578382815181106112cb576112cb611a76565b60200260200101518482815181106112e5576112e5611a76565b602002602001015112156112f7578091505b8061130181611a28565b9150506112b0565b6000818312611318578161131a565b825b9392505050565b6000805b60065481101561155557600254600680546001600160a01b03909216916323b872dd91908490811061135957611359611a76565b6000918252602090912060039091020154600680546001600160a01b03909216918590811061138a5761138a611a76565b906000526020600020906003020160010160009054906101000a90046001600160a01b0316600685815481106113c2576113c2611a76565b60009182526020909120600260039092020101546040516001600160e01b031960e086901b1681526001600160a01b0393841660048201529290911660248301526044820152606401602060405180830381600087803b15801561142557600080fd5b505af1158015611439573d6000803e3d6000fd5b505050506040513d601f19601f8201168201806040525081019061145d9190611669565b507f7db7852b30fc413c4a90995f03d9f21e64c45d0ddc8324a8ce4c730a051cbf826006828154811061149257611492611a76565b6000918252602090912060039091020154600680546001600160a01b0390921691849081106114c3576114c3611a76565b906000526020600020906003020160010160009054906101000a90046001600160a01b0316600684815481106114fb576114fb611a76565b90600052602060002090600302016002015460405161153b939291906001600160a01b039384168152919092166020820152604081019190915260600190565b60405180910390a18061154d81611a28565b915050611325565b506001905090565b828054611569906119ed565b90600052602060002090601f01602090048101928261158b57600085556115d1565b82601f106115a457805160ff19168380011785556115d1565b828001600101855582156115d1579182015b828111156115d15782518255916020019190600101906115b6565b506115dd9291506115e1565b5090565b5b808211156115dd57600081556001016115e2565b80356001600160a01b038116811461160d57600080fd5b919050565b60006020828403121561162457600080fd5b61131a826115f6565b60008060006060848603121561164257600080fd5b61164b846115f6565b9250611659602085016115f6565b9150604084013590509250925092565b60006020828403121561167b57600080fd5b8151801515811461131a57600080fd5b60006020828403121561169d57600080fd5b813567ffffffffffffffff808211156116b557600080fd5b818401915084601f8301126116c957600080fd5b8135818111156116db576116db611a8c565b604051601f8201601f19908116603f0116810190838211818310171561170357611703611a8c565b8160405282815287602084870101111561171c57600080fd5b826020860160208301376000928101602001929092525095945050505050565b60006020828403121561174e57600080fd5b5035919050565b60006020828403121561176757600080fd5b5051919050565b600081518084526020808501945080840160005b838110156117a75781516001600160a01b031687529582019590820190600101611782565b509495945050505050565b600081518084526020808501945080840160005b838110156117a7578151875295820195908201906001016117c6565b6000815180845260005b81811015611808576020818501810151868301820152016117ec565b8181111561181a576000602083870101525b50601f01601f19169290920160200192915050565b6001600160a01b0383168152604060208201819052600090611853908301846117e2565b949350505050565b6020808252818101527f4f776e61626c653a2063616c6c6572206973206e6f7420746865206f776e6572604082015260600190565b60006101008a8352602060018060a01b038b16818501528160408501526118b98285018b61176e565b915083820360608501528189518084528284019150828160051b850101838c0160005b8381101561190a57601f198784030185526118f88383516117e2565b948601949250908501906001016118dc565b5050868103608088015261191e818c6117b2565b94505050505082810360a0840152611936818761176e565b905082810360c084015261194a818661176e565b905082810360e084015261195e81856117b2565b9b9a5050505050505050505050565b600080821280156001600160ff1b038490038513161561198f5761198f611a60565b600160ff1b83900384128116156119a8576119a8611a60565b50500190565b60008083128015600160ff1b8501841216156119cc576119cc611a60565b6001600160ff1b03840183138116156119e7576119e7611a60565b50500390565b600181811c90821680611a0157607f821691505b60208210811415611a2257634e487b7160e01b600052602260045260246000fd5b50919050565b6000600019821415611a3c57611a3c611a60565b5060010190565b6000600160ff1b821415611a5957611a59611a60565b5060000390565b634e487b7160e01b600052601160045260246000fd5b634e487b7160e01b600052603260045260246000fd5b634e487b7160e01b600052604160045260246000fdfea2646970667358221220c3ce29479aa2511e57bac4dfaad1abccbe78a236630dcd9bd486793d4a0c824464736f6c63430008070033",
  "immutableReferences": {},
  "source": "// SPDX-License-Identifier: MIT\npragma solidity ^0.8.0;\n\nimport \"@openzeppelin/contracts/access/Ownable.sol\";\nimport \"@openzeppelin/contracts/utils/Counters.sol\";\nimport \"@openzeppelin/contracts/token/ERC20/ERC20.sol\";\n\nimport \"./TOK.sol\";\n\ncontract ExpenseTrackerSelfJoin is Ownable {\n  using Counters for Counters.Counter;\n\n  event CalculationFinished();\n  event Transaction(address from, address to, uint256 amount);\n\n  Counters.Counter public participantsCounter;\n\n  TOK public token;\n\n  struct Participant {\n    address addr;\n    string name;\n  }\n\n  struct Expense {\n    address debtorAddr;\n    address payerAddr;\n    int256 amount;\n  }\n\n  struct Valid {\n    uint256 id;\n    bool valid;\n  }\n\n  mapping(address => Valid) public participants;\n  mapping(uint256 => Participant) public iterativeParticipants;\n\n  Expense[] public initialExpenses;\n  Expense[] public finalExpenses;\n\n  constructor(address tokenAddress) {\n    token = TOK(tokenAddress);\n  }\n\n  function min(int256 x, int256 y) internal pure returns (int256) {\n    return x < y ? x : y;\n  }\n\n  function findIndexOfMax(int256[] memory array)\n    internal\n    pure\n    returns (uint256)\n  {\n    uint256 indexOfMax = 0;\n    for (uint256 i = 0; i < array.length; i++) {\n      if (array[i] >= array[indexOfMax]) indexOfMax = i;\n    }\n    return indexOfMax;\n  }\n\n  function findIndexOfMin(int256[] memory array)\n    internal\n    pure\n    returns (uint256)\n  {\n    uint256 indexOfMin = 0;\n    for (uint256 i = 0; i < array.length; i++) {\n      if (array[i] < array[indexOfMin]) indexOfMin = i;\n    }\n    return indexOfMin;\n  }\n\n  function addParticipant(string memory name) external {\n    require(\n      !participants[msg.sender].valid,\n      \"ExpenseTracker: PARTICIPANT_ALREADY_ADDED\"\n    );\n\n    //token.mint(addr, amount);\n    participants[msg.sender] = Valid(participantsCounter.current(), true);\n    Participant memory participant = Participant(msg.sender, name);\n    iterativeParticipants[participantsCounter.current()] = participant;\n    participantsCounter.increment();\n  }\n\n  function addExpense(\n    address debtorAddr,\n    address payerAddr,\n    int256 amount\n  ) external onlyOwner {\n    require(\n      participants[debtorAddr].valid && participants[payerAddr].valid,\n      \"ExpenseTracker: PARTICIPANTS_NOT_ADDED\"\n    );\n    require(\n      amount <= int256(token.balanceOf(debtorAddr)),\n      \"ExpenseTracker: BALANCE_OF_DEBTOR_LESS_THAN_DEBIT\"\n    );\n    require(\n      amount <= int256(token.allowance(debtorAddr, address(this))),\n      \"ExpenseTracker: NOT_ENOUGH_ALLOWANCE\"\n    );\n    Expense memory expense = Expense(debtorAddr, payerAddr, amount);\n    initialExpenses.push(expense);\n  }\n\n  function calculate() external onlyOwner {\n    int256[] memory amountArray = new int256[](participantsCounter.current());\n    for (uint256 i = 0; i < participantsCounter.current(); i++)\n      amountArray[i] = 0;\n\n    for (uint256 i = 0; i < initialExpenses.length; i++) {\n      amountArray[\n        participants[initialExpenses[i].debtorAddr].id\n      ] -= initialExpenses[i].amount;\n      amountArray[\n        participants[initialExpenses[i].payerAddr].id\n      ] += initialExpenses[i].amount;\n    }\n\n    uint256 maxCreditIndex;\n    uint256 maxDebitIndex;\n\n    do {\n      maxCreditIndex = findIndexOfMax(amountArray);\n      maxDebitIndex = findIndexOfMin(amountArray);\n\n      int256 minAmount = min(\n        amountArray[maxCreditIndex],\n        -amountArray[maxDebitIndex]\n      );\n\n      amountArray[maxCreditIndex] -= minAmount;\n      amountArray[maxDebitIndex] += minAmount;\n\n      Expense memory expense = Expense(\n        iterativeParticipants[maxDebitIndex].addr,\n        iterativeParticipants[maxCreditIndex].addr,\n        minAmount\n      );\n\n      finalExpenses.push(expense);\n    } while (\n      amountArray[maxCreditIndex] != 0 || amountArray[maxDebitIndex] != 0\n    );\n\n    require(paysExpenses(), \"ExpenseTracker: TRANSFER_FAILED\");\n\n    emit CalculationFinished();\n  }\n\n  function paysExpenses() internal returns (bool) {\n    for (uint256 i = 0; i < finalExpenses.length; i++) {\n      token.transferFrom(\n        finalExpenses[i].debtorAddr,\n        finalExpenses[i].payerAddr,\n        uint256(finalExpenses[i].amount)\n      );\n      emit Transaction(\n        finalExpenses[i].debtorAddr,\n        finalExpenses[i].payerAddr,\n        uint256(finalExpenses[i].amount)\n      );\n    }\n\n    return true;\n  }\n\n  function getInfo()\n    external\n    view\n    returns (\n      uint256,\n      address,\n      address[] memory,\n      string[] memory,\n      uint256[] memory,\n      address[] memory,\n      address[] memory,\n      int256[] memory\n    )\n  {\n    address[] memory participantsAddress = new address[](\n      participantsCounter.current()\n    );\n    string[] memory participantsName = new string[](\n      participantsCounter.current()\n    );\n    uint256[] memory participantsBalance = new uint256[](\n      participantsCounter.current()\n    );\n\n    for (uint256 i = 0; i < participantsCounter.current(); i++) {\n      participantsAddress[i] = iterativeParticipants[i].addr;\n      participantsName[i] = iterativeParticipants[i].name;\n      participantsBalance[i] = token.balanceOf(iterativeParticipants[i].addr);\n    }\n\n    address[] memory debtorsAddr = new address[](initialExpenses.length);\n    address[] memory payersAddr = new address[](initialExpenses.length);\n    int256[] memory amounts = new int256[](initialExpenses.length);\n\n    for (uint256 i = 0; i < initialExpenses.length; i++) {\n      debtorsAddr[i] = initialExpenses[i].debtorAddr;\n      payersAddr[i] = initialExpenses[i].payerAddr;\n      amounts[i] = initialExpenses[i].amount;\n    }\n\n    return (\n      participantsCounter.current(),\n      address(token),\n      participantsAddress,\n      participantsName,\n      participantsBalance,\n      debtorsAddr,\n      payersAddr,\n      amounts\n    );\n  }\n}\n",
  "sourcePath": "/Users/niccolofant/Desktop/assignment/core/contracts/ExpenseTrackerSelfJoin.sol",
  "compiler": {
    "name": "solc",
    "version": "0.8.7+commit.e28d00a7.Emscripten.clang"
  },
  "schemaVersion": "3.4.3",
  "updatedAt": "2022-01-22T18:37:37.628Z",
  "networkType": "ethereum",
  "devdoc": {
    "kind": "dev",
    "methods": {
      "owner()": {
        "details": "Returns the address of the current owner."
      },
      "renounceOwnership()": {
        "details": "Leaves the contract without owner. It will not be possible to call `onlyOwner` functions anymore. Can only be called by the current owner. NOTE: Renouncing ownership will leave the contract without an owner, thereby removing any functionality that is only available to the owner."
      },
      "transferOwnership(address)": {
        "details": "Transfers ownership of the contract to a new account (`newOwner`). Can only be called by the current owner."
      }
    },
    "version": 1
  },
  "userdoc": {
    "kind": "user",
    "methods": {},
    "version": 1
  }
}