{
  "contractName": "ExpenseTracker",
  "abi": [
    {
      "inputs": [
        {
          "internalType": "address",
          "name": "tokenAddress",
          "type": "address"
        }
      ],
      "stateMutability": "nonpayable",
      "type": "constructor"
    },
    {
      "anonymous": false,
      "inputs": [],
      "name": "CalculationFinished",
      "type": "event"
    },
    {
      "anonymous": false,
      "inputs": [
        {
          "indexed": true,
          "internalType": "address",
          "name": "debtor",
          "type": "address"
        },
        {
          "indexed": true,
          "internalType": "address",
          "name": "payer",
          "type": "address"
        },
        {
          "indexed": false,
          "internalType": "int256",
          "name": "amount",
          "type": "int256"
        }
      ],
      "name": "ExpenseAdded",
      "type": "event"
    },
    {
      "anonymous": false,
      "inputs": [
        {
          "indexed": true,
          "internalType": "address",
          "name": "previousOwner",
          "type": "address"
        },
        {
          "indexed": true,
          "internalType": "address",
          "name": "newOwner",
          "type": "address"
        }
      ],
      "name": "OwnershipTransferred",
      "type": "event"
    },
    {
      "anonymous": false,
      "inputs": [
        {
          "indexed": true,
          "internalType": "address",
          "name": "addr",
          "type": "address"
        },
        {
          "indexed": true,
          "internalType": "string",
          "name": "name",
          "type": "string"
        }
      ],
      "name": "ParticipantAdded",
      "type": "event"
    },
    {
      "anonymous": false,
      "inputs": [
        {
          "indexed": true,
          "internalType": "address",
          "name": "from",
          "type": "address"
        },
        {
          "indexed": true,
          "internalType": "address",
          "name": "to",
          "type": "address"
        },
        {
          "indexed": false,
          "internalType": "uint256",
          "name": "amount",
          "type": "uint256"
        }
      ],
      "name": "Transaction",
      "type": "event"
    },
    {
      "inputs": [
        {
          "internalType": "uint256",
          "name": "",
          "type": "uint256"
        }
      ],
      "name": "finalExpenses",
      "outputs": [
        {
          "internalType": "address",
          "name": "debtorAddr",
          "type": "address"
        },
        {
          "internalType": "address",
          "name": "payerAddr",
          "type": "address"
        },
        {
          "internalType": "int256",
          "name": "amount",
          "type": "int256"
        }
      ],
      "stateMutability": "view",
      "type": "function",
      "constant": true
    },
    {
      "inputs": [
        {
          "internalType": "uint256",
          "name": "",
          "type": "uint256"
        }
      ],
      "name": "initialExpenses",
      "outputs": [
        {
          "internalType": "address",
          "name": "debtorAddr",
          "type": "address"
        },
        {
          "internalType": "address",
          "name": "payerAddr",
          "type": "address"
        },
        {
          "internalType": "int256",
          "name": "amount",
          "type": "int256"
        }
      ],
      "stateMutability": "view",
      "type": "function",
      "constant": true
    },
    {
      "inputs": [
        {
          "internalType": "uint256",
          "name": "",
          "type": "uint256"
        }
      ],
      "name": "iterativeParticipants",
      "outputs": [
        {
          "internalType": "address",
          "name": "addr",
          "type": "address"
        },
        {
          "internalType": "string",
          "name": "name",
          "type": "string"
        }
      ],
      "stateMutability": "view",
      "type": "function",
      "constant": true
    },
    {
      "inputs": [],
      "name": "owner",
      "outputs": [
        {
          "internalType": "address",
          "name": "",
          "type": "address"
        }
      ],
      "stateMutability": "view",
      "type": "function",
      "constant": true
    },
    {
      "inputs": [
        {
          "internalType": "address",
          "name": "",
          "type": "address"
        }
      ],
      "name": "participants",
      "outputs": [
        {
          "internalType": "uint256",
          "name": "id",
          "type": "uint256"
        },
        {
          "internalType": "bool",
          "name": "valid",
          "type": "bool"
        }
      ],
      "stateMutability": "view",
      "type": "function",
      "constant": true
    },
    {
      "inputs": [],
      "name": "participantsCounter",
      "outputs": [
        {
          "internalType": "uint256",
          "name": "_value",
          "type": "uint256"
        }
      ],
      "stateMutability": "view",
      "type": "function",
      "constant": true
    },
    {
      "inputs": [],
      "name": "renounceOwnership",
      "outputs": [],
      "stateMutability": "nonpayable",
      "type": "function"
    },
    {
      "inputs": [],
      "name": "token",
      "outputs": [
        {
          "internalType": "contract TOK",
          "name": "",
          "type": "address"
        }
      ],
      "stateMutability": "view",
      "type": "function",
      "constant": true
    },
    {
      "inputs": [
        {
          "internalType": "address",
          "name": "newOwner",
          "type": "address"
        }
      ],
      "name": "transferOwnership",
      "outputs": [],
      "stateMutability": "nonpayable",
      "type": "function"
    },
    {
      "inputs": [
        {
          "internalType": "address",
          "name": "addr",
          "type": "address"
        },
        {
          "internalType": "string",
          "name": "name",
          "type": "string"
        }
      ],
      "name": "addParticipant",
      "outputs": [],
      "stateMutability": "nonpayable",
      "type": "function"
    },
    {
      "inputs": [
        {
          "internalType": "address",
          "name": "debtorAddr",
          "type": "address"
        },
        {
          "internalType": "address",
          "name": "payerAddr",
          "type": "address"
        },
        {
          "internalType": "int256",
          "name": "amount",
          "type": "int256"
        }
      ],
      "name": "addExpense",
      "outputs": [],
      "stateMutability": "nonpayable",
      "type": "function"
    },
    {
      "inputs": [],
      "name": "calculate",
      "outputs": [],
      "stateMutability": "nonpayable",
      "type": "function"
    },
    {
      "inputs": [],
      "name": "getInfo",
      "outputs": [
        {
          "internalType": "uint256",
          "name": "",
          "type": "uint256"
        },
        {
          "internalType": "address",
          "name": "",
          "type": "address"
        },
        {
          "internalType": "address[]",
          "name": "",
          "type": "address[]"
        },
        {
          "internalType": "string[]",
          "name": "",
          "type": "string[]"
        },
        {
          "internalType": "uint256[]",
          "name": "",
          "type": "uint256[]"
        },
        {
          "internalType": "address[]",
          "name": "",
          "type": "address[]"
        },
        {
          "internalType": "address[]",
          "name": "",
          "type": "address[]"
        },
        {
          "internalType": "int256[]",
          "name": "",
          "type": "int256[]"
        }
      ],
      "stateMutability": "view",
      "type": "function",
      "constant": true
    }
  ],
  "bytecode": "0x608060405234801561001057600080fd5b5060405162001b8838038062001b88833981016040819052610031916100af565b61003a3361005f565b600280546001600160a01b0319166001600160a01b03929092169190911790556100df565b600080546001600160a01b038381166001600160a01b0319831681178455604051919092169283917f8be0079c531659141344cd1fd0a4f28419497f9722a3daafe3b4186f6b6457e09190a35050565b6000602082840312156100c157600080fd5b81516001600160a01b03811681146100d857600080fd5b9392505050565b611a9980620000ef6000396000f3fe608060405234801561001057600080fd5b50600436106100cf5760003560e01c80638e52f97b1161008c578063ca77ab6511610066578063ca77ab65146101fb578063f2fde38b14610203578063f30b506914610216578063fc0c546a1461022957600080fd5b80638e52f97b1461018e578063a03e31d1146101af578063b68feb84146101e857600080fd5b806309e69ede146100d45780634572bc88146101185780635a9b0b8914610130578063660886871461014c578063715018a6146101615780638da5cb5b14610169575b600080fd5b6100fe6100e2366004611597565b6003602052600090815260409020805460019091015460ff1682565b604080519283529015156020830152015b60405180910390f35b6001546101229081565b60405190815260200161010f565b61013861023c565b60405161010f989796959493929190611821565b61015f61015a3660046115b2565b610743565b005b61015f610a15565b6000546001600160a01b03165b6040516001600160a01b03909116815260200161010f565b6101a161019c3660046116d2565b610a4b565b60405161010f9291906117c0565b6101c26101bd3660046116d2565b610afa565b604080516001600160a01b0394851681529390921660208401529082015260600161010f565b61015f6101f63660046115ee565b610b3a565b61015f610cd7565b61015f610211366004611597565b6110f2565b6101c26102243660046116d2565b61118d565b600254610176906001600160a01b031681565b600080606080606080606080600061025360015490565b67ffffffffffffffff81111561026b5761026b611a4d565b604051908082528060200260200182016040528015610294578160200160208202803683370190505b50905060006102a260015490565b67ffffffffffffffff8111156102ba576102ba611a4d565b6040519080825280602002602001820160405280156102ed57816020015b60608152602001906001900390816102d85790505b50905060006102fb60015490565b67ffffffffffffffff81111561031357610313611a4d565b60405190808252806020026020018201604052801561033c578160200160208202803683370190505b50905060005b60015481101561050a5760008181526004602052604090205484516001600160a01b039091169085908390811061037b5761037b611a37565b6001600160a01b03909216602092830291909101820152600082815260049091526040902060010180546103ae906119ae565b80601f01602080910402602001604051908101604052809291908181526020018280546103da906119ae565b80156104275780601f106103fc57610100808354040283529160200191610427565b820191906000526020600020905b81548152906001019060200180831161040a57829003601f168201915b505050505083828151811061043e5761043e611a37565b60209081029190910181019190915260025460008381526004928390526040908190205490516370a0823160e01b81526001600160a01b039182169381019390935216906370a082319060240160206040518083038186803b1580156104a357600080fd5b505afa1580156104b7573d6000803e3d6000fd5b505050506040513d601f19601f820116820180604052508101906104db91906116eb565b8282815181106104ed576104ed611a37565b602090810291909101015280610502816119e9565b915050610342565b5060055460009067ffffffffffffffff81111561052957610529611a4d565b604051908082528060200260200182016040528015610552578160200160208202803683370190505b5060055490915060009067ffffffffffffffff81111561057457610574611a4d565b60405190808252806020026020018201604052801561059d578160200160208202803683370190505b5060055490915060009067ffffffffffffffff8111156105bf576105bf611a4d565b6040519080825280602002602001820160405280156105e8578160200160208202803683370190505b50905060005b60055481101561071a576005818154811061060b5761060b611a37565b600091825260209091206003909102015484516001600160a01b039091169085908390811061063c5761063c611a37565b60200260200101906001600160a01b031690816001600160a01b0316815250506005818154811061066f5761066f611a37565b906000526020600020906003020160010160009054906101000a90046001600160a01b03168382815181106106a6576106a6611a37565b60200260200101906001600160a01b031690816001600160a01b031681525050600581815481106106d9576106d9611a37565b9060005260206000209060030201600201548282815181106106fd576106fd611a37565b602090810291909101015280610712816119e9565b9150506105ee565b50600154600254909f6001600160a01b039091169e50959c50939a509198509650945092509050565b6000546001600160a01b031633146107765760405162461bcd60e51b815260040161076d906117ec565b60405180910390fd5b6001600160a01b03831660009081526003602052604090206001015460ff1680156107bc57506001600160a01b03821660009081526003602052604090206001015460ff165b6108165760405162461bcd60e51b815260206004820152602560248201527f4f6e65206f72206d6f7265207061727469636970616e7473206172656e277420604482015264185919195960da1b606482015260840161076d565b6002546040516370a0823160e01b81526001600160a01b038581166004830152909116906370a082319060240160206040518083038186803b15801561085b57600080fd5b505afa15801561086f573d6000803e3d6000fd5b505050506040513d601f19601f8201168201806040525081019061089391906116eb565b8113156109015760405162461bcd60e51b815260206004820152603660248201527f4572726f723a20446562746f722062616c616e63652073686f756c642062652060448201527519dc99585d195c881d1a185b881a1a5cc81919589a5d60521b606482015260840161076d565b604080516060810182526001600160a01b038086168083528582166020840181815284860187815260058054600181018255600091909152865160039091027f036b6384b5eca791c62761152d0c79bb0604c104a5fb6f4eb0703f3154bb3db0810180549288166001600160a01b031993841617905592517f036b6384b5eca791c62761152d0c79bb0604c104a5fb6f4eb0703f3154bb3db1840180549190971691161790945592517f036b6384b5eca791c62761152d0c79bb0604c104a5fb6f4eb0703f3154bb3db2909301929092559251919290917fbd1101f01e5043b442d7312228b63cae3ef6a1488a210f0b9c13887077c8b50890610a079086815260200190565b60405180910390a350505050565b6000546001600160a01b03163314610a3f5760405162461bcd60e51b815260040161076d906117ec565b610a49600061119d565b565b600460205260009081526040902080546001820180546001600160a01b039092169291610a77906119ae565b80601f0160208091040260200160405190810160405280929190818152602001828054610aa3906119ae565b8015610af05780601f10610ac557610100808354040283529160200191610af0565b820191906000526020600020905b815481529060010190602001808311610ad357829003601f168201915b5050505050905082565b60058181548110610b0a57600080fd5b60009182526020909120600390910201805460018201546002909201546001600160a01b03918216935091169083565b6000546001600160a01b03163314610b645760405162461bcd60e51b815260040161076d906117ec565b6001600160a01b03821660009081526003602052604090206001015460ff1615610be25760405162461bcd60e51b815260206004820152602960248201527f457870656e7365547261636b65723a205041525449434950414e545f414c524560448201526810511657d05111115160ba1b606482015260840161076d565b6040518060400160405280610bf660015490565b8152600160209182018190526001600160a01b0385811660008181526003855260408082208751815596860151968501805460ff191697151597909717909655855180870187529182528185018781528454825260048652959020815181546001600160a01b03191693169290921782559351805185949293610c7e939085019201906114e2565b505060018054810190555081604051610c9791906117a4565b604051908190038120906001600160a01b038516907f54d9fcf3da31043daf69e0a8ad35eaf7cfae552733f792dc3d95805eb45bfec290600090a3505050565b6000546001600160a01b03163314610d015760405162461bcd60e51b815260040161076d906117ec565b6000610d0c60015490565b67ffffffffffffffff811115610d2457610d24611a4d565b604051908082528060200260200182016040528015610d4d578160200160208202803683370190505b50905060005b600154811015610d8e576000828281518110610d7157610d71611a37565b602090810291909101015280610d86816119e9565b915050610d53565b5060005b600554811015610ecf5760058181548110610daf57610daf611a37565b906000526020600020906003020160020154826003600060058581548110610dd957610dd9611a37565b600091825260208083206003909202909101546001600160a01b0316835282019290925260400190205481518110610e1357610e13611a37565b60200260200101818151610e27919061193f565b9052506005805482908110610e3e57610e3e611a37565b906000526020600020906003020160020154826003600060058581548110610e6857610e68611a37565b60009182526020808320600160039093020191909101546001600160a01b0316835282019290925260400190205481518110610ea657610ea6611a37565b60200260200101818151610eba91906118fe565b90525080610ec7816119e9565b915050610d92565b506000805b610edd836111ed565b9150610ee883611251565b90506000610f31848481518110610f0157610f01611a37565b6020026020010151858481518110610f1b57610f1b611a37565b6020026020010151610f2c90611a04565b6112af565b905080848481518110610f4657610f46611a37565b60200260200101818151610f5a919061193f565b90525083518190859084908110610f7357610f73611a37565b60200260200101818151610f8791906118fe565b90525060408051606081018252600084815260046020818152848320546001600160a01b039081168552888452918152848320548216908401908152938301948552600680546001810182559252915160039091027ff652222313e28459528d920b65115c16c04f3efc82aaedc97be59f3f377c0d3f810180549284166001600160a01b031993841617905592517ff652222313e28459528d920b65115c16c04f3efc82aaedc97be59f3f377c0d408401805491909316911617905590517ff652222313e28459528d920b65115c16c04f3efc82aaedc97be59f3f377c0d4190910155825183908390811061107e5761107e611a37565b602002602001015160001415806110af57508281815181106110a2576110a2611a37565b6020026020010151600014155b610ed4576110bb6112c7565b6110c457600080fd5b6040517fc8f9da615631f09888fe5c6596c3fafaa6608feaf329f75a5d92bdab1b6438b290600090a1505050565b6000546001600160a01b0316331461111c5760405162461bcd60e51b815260040161076d906117ec565b6001600160a01b0381166111815760405162461bcd60e51b815260206004820152602660248201527f4f776e61626c653a206e6577206f776e657220697320746865207a65726f206160448201526564647265737360d01b606482015260840161076d565b61118a8161119d565b50565b60068181548110610b0a57600080fd5b600080546001600160a01b038381166001600160a01b0319831681178455604051919092169283917f8be0079c531659141344cd1fd0a4f28419497f9722a3daafe3b4186f6b6457e09190a35050565b600080805b835181101561124a5783828151811061120d5761120d611a37565b602002602001015184828151811061122757611227611a37565b602002602001015112611238578091505b80611242816119e9565b9150506111f2565b5092915050565b600080805b835181101561124a5783828151811061127157611271611a37565b602002602001015184828151811061128b5761128b611a37565b6020026020010151121561129d578091505b806112a7816119e9565b915050611256565b60008183126112be57816112c0565b825b9392505050565b6000805b6006548110156114da57600254600680546001600160a01b03909216916323b872dd9190849081106112ff576112ff611a37565b6000918252602090912060039091020154600680546001600160a01b03909216918590811061133057611330611a37565b906000526020600020906003020160010160009054906101000a90046001600160a01b03166006858154811061136857611368611a37565b60009182526020909120600260039092020101546040516001600160e01b031960e086901b1681526001600160a01b0393841660048201529290911660248301526044820152606401602060405180830381600087803b1580156113cb57600080fd5b505af11580156113df573d6000803e3d6000fd5b505050506040513d601f19601f8201168201806040525081019061140391906116b0565b506006818154811061141757611417611a37565b6000918252602090912060016003909202010154600680546001600160a01b03909216918390811061144b5761144b611a37565b6000918252602090912060039091020154600680546001600160a01b03909216917f7db7852b30fc413c4a90995f03d9f21e64c45d0ddc8324a8ce4c730a051cbf8291908590811061149f5761149f611a37565b9060005260206000209060030201600201546040516114c091815260200190565b60405180910390a3806114d2816119e9565b9150506112cb565b506001905090565b8280546114ee906119ae565b90600052602060002090601f0160209004810192826115105760008555611556565b82601f1061152957805160ff1916838001178555611556565b82800160010185558215611556579182015b8281111561155657825182559160200191906001019061153b565b50611562929150611566565b5090565b5b808211156115625760008155600101611567565b80356001600160a01b038116811461159257600080fd5b919050565b6000602082840312156115a957600080fd5b6112c08261157b565b6000806000606084860312156115c757600080fd5b6115d08461157b565b92506115de6020850161157b565b9150604084013590509250925092565b6000806040838503121561160157600080fd5b61160a8361157b565b9150602083013567ffffffffffffffff8082111561162757600080fd5b818501915085601f83011261163b57600080fd5b81358181111561164d5761164d611a4d565b604051601f8201601f19908116603f0116810190838211818310171561167557611675611a4d565b8160405282815288602084870101111561168e57600080fd5b8260208601602083013760006020848301015280955050505050509250929050565b6000602082840312156116c257600080fd5b815180151581146112c057600080fd5b6000602082840312156116e457600080fd5b5035919050565b6000602082840312156116fd57600080fd5b5051919050565b600081518084526020808501945080840160005b8381101561173d5781516001600160a01b031687529582019590820190600101611718565b509495945050505050565b600081518084526020808501945080840160005b8381101561173d5781518752958201959082019060010161175c565b6000815180845261179081602086016020860161197e565b601f01601f19169290920160200192915050565b600082516117b681846020870161197e565b9190910192915050565b6001600160a01b03831681526040602082018190526000906117e490830184611778565b949350505050565b6020808252818101527f4f776e61626c653a2063616c6c6572206973206e6f7420746865206f776e6572604082015260600190565b60006101008a8352602060018060a01b038b168185015281604085015261184a8285018b611704565b915083820360608501528189518084528284019150828160051b850101838c0160005b8381101561189b57601f19878403018552611889838351611778565b9486019492509085019060010161186d565b505086810360808801526118af818c611748565b94505050505082810360a08401526118c78187611704565b905082810360c08401526118db8186611704565b905082810360e08401526118ef8185611748565b9b9a5050505050505050505050565b600080821280156001600160ff1b038490038513161561192057611920611a21565b600160ff1b839003841281161561193957611939611a21565b50500190565b60008083128015600160ff1b85018412161561195d5761195d611a21565b6001600160ff1b038401831381161561197857611978611a21565b50500390565b60005b83811015611999578181015183820152602001611981565b838111156119a8576000848401525b50505050565b600181811c908216806119c257607f821691505b602082108114156119e357634e487b7160e01b600052602260045260246000fd5b50919050565b60006000198214156119fd576119fd611a21565b5060010190565b6000600160ff1b821415611a1a57611a1a611a21565b5060000390565b634e487b7160e01b600052601160045260246000fd5b634e487b7160e01b600052603260045260246000fd5b634e487b7160e01b600052604160045260246000fdfea26469706673582212209033838cbc007d8d8aa36233760f5e4d34ecec07ed819cf3ba8faf493f4070cc64736f6c63430008070033",
  "immutableReferences": {},
  "source": "// SPDX-License-Identifier: MIT\npragma solidity ^0.8.0;\n\nimport \"@openzeppelin/contracts/access/Ownable.sol\";\nimport \"@openzeppelin/contracts/utils/Counters.sol\";\nimport \"@openzeppelin/contracts/token/ERC20/ERC20.sol\";\n\nimport \"./TOK.sol\";\n\ncontract ExpenseTracker is Ownable {\n  using Counters for Counters.Counter;\n\n  event CalculationFinished();\n  event Transaction(address indexed from, address indexed to, uint256 amount);\n  event ParticipantAdded(address indexed addr, string indexed name);\n  event ExpenseAdded(\n    address indexed debtor,\n    address indexed payer,\n    int256 amount\n  );\n\n  Counters.Counter public participantsCounter;\n\n  TOK public token;\n\n  struct Participant {\n    address addr;\n    string name;\n  }\n\n  struct Expense {\n    address debtorAddr;\n    address payerAddr;\n    int256 amount;\n  }\n\n  struct Valid {\n    uint256 id;\n    bool valid;\n  }\n\n  mapping(address => Valid) public participants;\n  mapping(uint256 => Participant) public iterativeParticipants;\n\n  Expense[] public initialExpenses;\n  Expense[] public finalExpenses;\n\n  constructor(address tokenAddress) {\n    token = TOK(tokenAddress);\n  }\n\n  function min(int256 x, int256 y) internal pure returns (int256) {\n    return x < y ? x : y;\n  }\n\n  function findIndexOfMax(int256[] memory array)\n    internal\n    pure\n    returns (uint256)\n  {\n    uint256 indexOfMax = 0;\n    for (uint256 i = 0; i < array.length; i++) {\n      if (array[i] >= array[indexOfMax]) indexOfMax = i;\n    }\n    return indexOfMax;\n  }\n\n  function findIndexOfMin(int256[] memory array)\n    internal\n    pure\n    returns (uint256)\n  {\n    uint256 indexOfMin = 0;\n    for (uint256 i = 0; i < array.length; i++) {\n      if (array[i] < array[indexOfMin]) indexOfMin = i;\n    }\n    return indexOfMin;\n  }\n\n  function addParticipant(address addr, string memory name) external onlyOwner {\n    require(\n      !participants[addr].valid,\n      \"ExpenseTracker: PARTICIPANT_ALREADY_ADDED\"\n    );\n    participants[addr] = Valid(participantsCounter.current(), true);\n    Participant memory participant = Participant(addr, name);\n    iterativeParticipants[participantsCounter.current()] = participant;\n    participantsCounter.increment();\n\n    emit ParticipantAdded(addr, name);\n  }\n\n  function addExpense(\n    address debtorAddr,\n    address payerAddr,\n    int256 amount\n  ) external onlyOwner {\n    require(\n      participants[debtorAddr].valid && participants[payerAddr].valid,\n      \"One or more participants aren't added\"\n    );\n    require(\n      amount <= int256(token.balanceOf(debtorAddr)),\n      \"Error: Debtor balance should be greater than his debit\"\n    );\n    Expense memory expense = Expense(debtorAddr, payerAddr, amount);\n    initialExpenses.push(expense);\n\n    emit ExpenseAdded(debtorAddr, payerAddr, amount);\n  }\n\n  function calculate() external onlyOwner {\n    int256[] memory amountArray = new int256[](participantsCounter.current());\n    for (uint256 i = 0; i < participantsCounter.current(); i++)\n      amountArray[i] = 0;\n\n    for (uint256 i = 0; i < initialExpenses.length; i++) {\n      amountArray[\n        participants[initialExpenses[i].debtorAddr].id\n      ] -= initialExpenses[i].amount;\n      amountArray[\n        participants[initialExpenses[i].payerAddr].id\n      ] += initialExpenses[i].amount;\n    }\n\n    uint256 maxCreditIndex;\n    uint256 maxDebitIndex;\n\n    do {\n      maxCreditIndex = findIndexOfMax(amountArray);\n      maxDebitIndex = findIndexOfMin(amountArray);\n\n      int256 minAmount = min(\n        amountArray[maxCreditIndex],\n        -amountArray[maxDebitIndex]\n      );\n\n      amountArray[maxCreditIndex] -= minAmount;\n      amountArray[maxDebitIndex] += minAmount;\n\n      Expense memory expense = Expense(\n        iterativeParticipants[maxDebitIndex].addr,\n        iterativeParticipants[maxCreditIndex].addr,\n        minAmount\n      );\n\n      finalExpenses.push(expense);\n    } while (\n      amountArray[maxCreditIndex] != 0 || amountArray[maxDebitIndex] != 0\n    );\n\n    require(paysExpenses());\n\n    emit CalculationFinished();\n  }\n\n  function paysExpenses() internal returns (bool) {\n    for (uint256 i = 0; i < finalExpenses.length; i++) {\n      token.transferFrom(\n        finalExpenses[i].debtorAddr,\n        finalExpenses[i].payerAddr,\n        uint256(finalExpenses[i].amount)\n      );\n      emit Transaction(\n        finalExpenses[i].debtorAddr,\n        finalExpenses[i].payerAddr,\n        uint256(finalExpenses[i].amount)\n      );\n    }\n\n    return true;\n  }\n\n  function getInfo()\n    external\n    view\n    returns (\n      uint256,\n      address,\n      address[] memory,\n      string[] memory,\n      uint256[] memory,\n      address[] memory,\n      address[] memory,\n      int256[] memory\n    )\n  {\n    address[] memory participantsAddress = new address[](\n      participantsCounter.current()\n    );\n    string[] memory participantsName = new string[](\n      participantsCounter.current()\n    );\n    uint256[] memory participantsBalance = new uint256[](\n      participantsCounter.current()\n    );\n\n    for (uint256 i = 0; i < participantsCounter.current(); i++) {\n      participantsAddress[i] = iterativeParticipants[i].addr;\n      participantsName[i] = iterativeParticipants[i].name;\n      participantsBalance[i] = token.balanceOf(iterativeParticipants[i].addr);\n    }\n\n    address[] memory debtorsAddr = new address[](initialExpenses.length);\n    address[] memory payersAddr = new address[](initialExpenses.length);\n    int256[] memory amounts = new int256[](initialExpenses.length);\n\n    for (uint256 i = 0; i < initialExpenses.length; i++) {\n      debtorsAddr[i] = initialExpenses[i].debtorAddr;\n      payersAddr[i] = initialExpenses[i].payerAddr;\n      amounts[i] = initialExpenses[i].amount;\n    }\n\n    return (\n      participantsCounter.current(),\n      address(token),\n      participantsAddress,\n      participantsName,\n      participantsBalance,\n      debtorsAddr,\n      payersAddr,\n      amounts\n    );\n  }\n}\n",
  "sourcePath": "/Users/niccolofant/Desktop/assignment/core/contracts/ExpenseTracker.sol",
  "compiler": {
    "name": "solc",
    "version": "0.8.7+commit.e28d00a7.Emscripten.clang"
  },
  "schemaVersion": "3.4.3",
  "updatedAt": "2022-01-23T15:25:02.970Z",
  "networkType": "ethereum",
  "devdoc": {
    "kind": "dev",
    "methods": {
      "owner()": {
        "details": "Returns the address of the current owner."
      },
      "renounceOwnership()": {
        "details": "Leaves the contract without owner. It will not be possible to call `onlyOwner` functions anymore. Can only be called by the current owner. NOTE: Renouncing ownership will leave the contract without an owner, thereby removing any functionality that is only available to the owner."
      },
      "transferOwnership(address)": {
        "details": "Transfers ownership of the contract to a new account (`newOwner`). Can only be called by the current owner."
      }
    },
    "version": 1
  },
  "userdoc": {
    "kind": "user",
    "methods": {},
    "version": 1
  }
}