{
  "contractName": "Factory",
  "abi": [
    {
      "inputs": [
        {
          "internalType": "address",
          "name": "tokenAddress",
          "type": "address"
        }
      ],
      "stateMutability": "nonpayable",
      "type": "constructor"
    },
    {
      "anonymous": false,
      "inputs": [
        {
          "indexed": true,
          "internalType": "address",
          "name": "previousOwner",
          "type": "address"
        },
        {
          "indexed": true,
          "internalType": "address",
          "name": "newOwner",
          "type": "address"
        }
      ],
      "name": "OwnershipTransferred",
      "type": "event"
    },
    {
      "inputs": [],
      "name": "owner",
      "outputs": [
        {
          "internalType": "address",
          "name": "",
          "type": "address"
        }
      ],
      "stateMutability": "view",
      "type": "function",
      "constant": true
    },
    {
      "inputs": [],
      "name": "renounceOwnership",
      "outputs": [],
      "stateMutability": "nonpayable",
      "type": "function"
    },
    {
      "inputs": [],
      "name": "trackerCounter",
      "outputs": [
        {
          "internalType": "uint256",
          "name": "_value",
          "type": "uint256"
        }
      ],
      "stateMutability": "view",
      "type": "function",
      "constant": true
    },
    {
      "inputs": [
        {
          "internalType": "uint256",
          "name": "",
          "type": "uint256"
        }
      ],
      "name": "trackers",
      "outputs": [
        {
          "internalType": "address",
          "name": "",
          "type": "address"
        }
      ],
      "stateMutability": "view",
      "type": "function",
      "constant": true
    },
    {
      "inputs": [
        {
          "internalType": "address",
          "name": "newOwner",
          "type": "address"
        }
      ],
      "name": "transferOwnership",
      "outputs": [],
      "stateMutability": "nonpayable",
      "type": "function"
    },
    {
      "inputs": [
        {
          "internalType": "address",
          "name": "tokenAddress",
          "type": "address"
        }
      ],
      "name": "addTracker",
      "outputs": [],
      "stateMutability": "nonpayable",
      "type": "function"
    },
    {
      "inputs": [],
      "name": "getTrackers",
      "outputs": [
        {
          "internalType": "address[]",
          "name": "",
          "type": "address[]"
        }
      ],
      "stateMutability": "view",
      "type": "function",
      "constant": true
    }
  ],
  "bytecode": "0x608060405234801561001057600080fd5b50604051613a76380380613a7683398101604081905261002f9161015d565b610038336100f7565b60008161004d6000546001600160a01b031690565b60405161005990610150565b6001600160a01b03928316815291166020820152604001604051809103906000f08015801561008c573d6000803e3d6000fd5b5060028054600180820183556000929092527f405787fa12a823e0f2b7631cc41b3ba8828b3321ca811111fa75cd3aa3bb5ace0180546001600160a01b0319166001600160a01b0384161790559091506100f090610147602090811b61035d17901c565b505061018d565b600080546001600160a01b038381166001600160a01b0319831681178455604051919092169283917f8be0079c531659141344cd1fd0a4f28419497f9722a3daafe3b4186f6b6457e09190a35050565b80546001019055565b611a0b8061206b83390190565b60006020828403121561016f57600080fd5b81516001600160a01b038116811461018657600080fd5b9392505050565b611ecf8061019c6000396000f3fe608060405234801561001057600080fd5b506004361061007d5760003560e01c80638da5cb5b1161005b5780638da5cb5b146100d4578063d57b803c146100e5578063f1362ffd146100fa578063f2fde38b1461010d57600080fd5b806316d6bca414610082578063715018a6146100b257806374adcf2e146100bc575b600080fd5b6100956100903660046103f3565b610120565b6040516001600160a01b0390911681526020015b60405180910390f35b6100ba61014a565b005b6001546100c69081565b6040519081526020016100a9565b6000546001600160a01b0316610095565b6100ed610189565b6040516100a9919061040c565b6100ba6101083660046103c3565b6101eb565b6100ba61011b3660046103c3565b6102c2565b6002818154811061013057600080fd5b6000918252602090912001546001600160a01b0316905081565b6000546001600160a01b0316331461017d5760405162461bcd60e51b815260040161017490610459565b60405180910390fd5b6101876000610366565b565b606060028054806020026020016040519081016040528092919081815260200182805480156101e157602002820191906000526020600020905b81546001600160a01b031681526001909101906020018083116101c3575b5050505050905090565b6000546001600160a01b031633146102155760405162461bcd60e51b815260040161017490610459565b60008161022a6000546001600160a01b031690565b604051610236906103b6565b6001600160a01b03928316815291166020820152604001604051809103906000f080158015610269573d6000803e3d6000fd5b5060028054600180820183556000929092527f405787fa12a823e0f2b7631cc41b3ba8828b3321ca811111fa75cd3aa3bb5ace0180546001600160a01b0319166001600160a01b03841617905580548101905590505050565b6000546001600160a01b031633146102ec5760405162461bcd60e51b815260040161017490610459565b6001600160a01b0381166103515760405162461bcd60e51b815260206004820152602660248201527f4f776e61626c653a206e6577206f776e657220697320746865207a65726f206160448201526564647265737360d01b6064820152608401610174565b61035a81610366565b50565b80546001019055565b600080546001600160a01b038381166001600160a01b0319831681178455604051919092169283917f8be0079c531659141344cd1fd0a4f28419497f9722a3daafe3b4186f6b6457e09190a35050565b611a0b8061048f83390190565b6000602082840312156103d557600080fd5b81356001600160a01b03811681146103ec57600080fd5b9392505050565b60006020828403121561040557600080fd5b5035919050565b6020808252825182820181905260009190848201906040850190845b8181101561044d5783516001600160a01b031683529284019291840191600101610428565b50909695505050505050565b6020808252818101527f4f776e61626c653a2063616c6c6572206973206e6f7420746865206f776e657260408201526060019056fe60806040523480156200001157600080fd5b5060405162001a0b38038062001a0b833981016040819052620000349162000083565b600180546001600160a01b039384166001600160a01b03199182161790915560068054929093169116179055620000bb565b80516001600160a01b03811681146200007e57600080fd5b919050565b600080604083850312156200009757600080fd5b620000a28362000066565b9150620000b26020840162000066565b90509250929050565b61194080620000cb6000396000f3fe608060405234801561001057600080fd5b50600436106100a95760003560e01c80638e52f97b116100715780638e52f97b14610166578063a03e31d114610187578063b68feb84146101c0578063ca77ab65146101d3578063f30b5069146101db578063fc0c546a146101ee57600080fd5b806309e69ede146100ae5780634572bc88146100f25780635a9b0b891461010a57806366088687146101265780638da5cb5b1461013b575b600080fd5b6100d86100bc366004611431565b6002602052600090815260409020805460019091015460ff1682565b604080519283529015156020830152015b60405180910390f35b6000546100fc9081565b6040519081526020016100e9565b610112610201565b6040516100e99897969594939291906116c8565b61013961013436600461144c565b610706565b005b60065461014e906001600160a01b031681565b6040516001600160a01b0390911681526020016100e9565b61017961017436600461156c565b6109d8565b6040516100e992919061165a565b61019a61019536600461156c565b610a87565b604080516001600160a01b039485168152939092166020840152908201526060016100e9565b6101396101ce366004611488565b610ac7565b610139610c65565b61019a6101e936600461156c565b611077565b60015461014e906001600160a01b031681565b600080606080606080606080600061021860005490565b67ffffffffffffffff811115610230576102306118f4565b604051908082528060200260200182016040528015610259578160200160208202803683370190505b509050600061026760005490565b67ffffffffffffffff81111561027f5761027f6118f4565b6040519080825280602002602001820160405280156102b257816020015b606081526020019060019003908161029d5790505b50905060006102c060005490565b67ffffffffffffffff8111156102d8576102d86118f4565b604051908082528060200260200182016040528015610301578160200160208202803683370190505b50905060005b6000548110156104cd5760008181526003602052604090205484516001600160a01b0390911690859083908110610340576103406118de565b6001600160a01b039092166020928302919091018201526000828152600390915260409020600101805461037390611855565b80601f016020809104026020016040519081016040528092919081815260200182805461039f90611855565b80156103ec5780601f106103c1576101008083540402835291602001916103ec565b820191906000526020600020905b8154815290600101906020018083116103cf57829003601f168201915b5050505050838281518110610403576104036118de565b602090810291909101810191909152600154600083815260039092526040918290205491516370a0823160e01b81526001600160a01b0392831660048201529116906370a082319060240160206040518083038186803b15801561046657600080fd5b505afa15801561047a573d6000803e3d6000fd5b505050506040513d601f19601f8201168201806040525081019061049e9190611585565b8282815181106104b0576104b06118de565b6020908102919091010152806104c581611890565b915050610307565b5060045460009067ffffffffffffffff8111156104ec576104ec6118f4565b604051908082528060200260200182016040528015610515578160200160208202803683370190505b5060045490915060009067ffffffffffffffff811115610537576105376118f4565b604051908082528060200260200182016040528015610560578160200160208202803683370190505b5060045490915060009067ffffffffffffffff811115610582576105826118f4565b6040519080825280602002602001820160405280156105ab578160200160208202803683370190505b50905060005b6004548110156106dd57600481815481106105ce576105ce6118de565b600091825260209091206003909102015484516001600160a01b03909116908590839081106105ff576105ff6118de565b60200260200101906001600160a01b031690816001600160a01b03168152505060048181548110610632576106326118de565b906000526020600020906003020160010160009054906101000a90046001600160a01b0316838281518110610669576106696118de565b60200260200101906001600160a01b031690816001600160a01b0316815250506004818154811061069c5761069c6118de565b9060005260206000209060030201600201548282815181106106c0576106c06118de565b6020908102919091010152806106d581611890565b9150506105b1565b50600054600154909f6001600160a01b039091169e50959c50939a509198509650945092509050565b6006546001600160a01b031633146107395760405162461bcd60e51b815260040161073090611686565b60405180910390fd5b6001600160a01b03831660009081526002602052604090206001015460ff16801561077f57506001600160a01b03821660009081526002602052604090206001015460ff165b6107d95760405162461bcd60e51b815260206004820152602560248201527f4f6e65206f72206d6f7265207061727469636970616e7473206172656e277420604482015264185919195960da1b6064820152608401610730565b6001546040516370a0823160e01b81526001600160a01b038581166004830152909116906370a082319060240160206040518083038186803b15801561081e57600080fd5b505afa158015610832573d6000803e3d6000fd5b505050506040513d601f19601f820116820180604052508101906108569190611585565b8113156108c45760405162461bcd60e51b815260206004820152603660248201527f4572726f723a20446562746f722062616c616e63652073686f756c642062652060448201527519dc99585d195c881d1a185b881a1a5cc81919589a5d60521b6064820152608401610730565b604080516060810182526001600160a01b038086168083528582166020840181815284860187815260048054600181018255600091909152865160039091027f8a35acfbc15ff81a39ae7d344fd709f28e8600b4aa8c65c6b64bfe7fe36bd19b810180549288166001600160a01b031993841617905592517f8a35acfbc15ff81a39ae7d344fd709f28e8600b4aa8c65c6b64bfe7fe36bd19c840180549190971691161790945592517f8a35acfbc15ff81a39ae7d344fd709f28e8600b4aa8c65c6b64bfe7fe36bd19d909301929092559251919290917fbd1101f01e5043b442d7312228b63cae3ef6a1488a210f0b9c13887077c8b508906109ca9086815260200190565b60405180910390a350505050565b600360205260009081526040902080546001820180546001600160a01b039092169291610a0490611855565b80601f0160208091040260200160405190810160405280929190818152602001828054610a3090611855565b8015610a7d5780601f10610a5257610100808354040283529160200191610a7d565b820191906000526020600020905b815481529060010190602001808311610a6057829003601f168201915b5050505050905082565b60048181548110610a9757600080fd5b60009182526020909120600390910201805460018201546002909201546001600160a01b03918216935091169083565b6006546001600160a01b03163314610af15760405162461bcd60e51b815260040161073090611686565b6001600160a01b03821660009081526002602052604090206001015460ff1615610b6f5760405162461bcd60e51b815260206004820152602960248201527f457870656e7365547261636b65723a205041525449434950414e545f414c524560448201526810511657d05111115160ba1b6064820152608401610730565b6040518060400160405280610b8360005490565b8152600160209182018190526001600160a01b0385811660008181526002855260408082208751815596860151968501805460ff191697151597909717909655855180870187529182528185018781528154825260038652959020815181546001600160a01b03191693169290921782559351805185949293610c0b9390850192019061137c565b50506000805460010190555081604051610c25919061163e565b604051908190038120906001600160a01b038516907f54d9fcf3da31043daf69e0a8ad35eaf7cfae552733f792dc3d95805eb45bfec290600090a3505050565b6006546001600160a01b03163314610c8f5760405162461bcd60e51b815260040161073090611686565b6000805467ffffffffffffffff811115610cab57610cab6118f4565b604051908082528060200260200182016040528015610cd4578160200160208202803683370190505b50905060005b600054811015610d15576000828281518110610cf857610cf86118de565b602090810291909101015280610d0d81611890565b915050610cda565b5060005b600454811015610e565760048181548110610d3657610d366118de565b906000526020600020906003020160020154826002600060048581548110610d6057610d606118de565b600091825260208083206003909202909101546001600160a01b0316835282019290925260400190205481518110610d9a57610d9a6118de565b60200260200101818151610dae91906117e6565b9052506004805482908110610dc557610dc56118de565b906000526020600020906003020160020154826002600060048581548110610def57610def6118de565b60009182526020808320600160039093020191909101546001600160a01b0316835282019290925260400190205481518110610e2d57610e2d6118de565b60200260200101818151610e4191906117a5565b90525080610e4e81611890565b915050610d19565b506000805b610e6483611087565b9150610e6f836110eb565b90506000610eb8848481518110610e8857610e886118de565b6020026020010151858481518110610ea257610ea26118de565b6020026020010151610eb3906118ab565b611149565b905080848481518110610ecd57610ecd6118de565b60200260200101818151610ee191906117e6565b90525083518190859084908110610efa57610efa6118de565b60200260200101818151610f0e91906117a5565b90525060408051606081018252600084815260036020818152848320546001600160a01b039081168552888452828252858420548116918501918252948401958652600580546001810182559352925191027f036b6384b5eca791c62761152d0c79bb0604c104a5fb6f4eb0703f3154bb3db0810180549285166001600160a01b031993841617905591517f036b6384b5eca791c62761152d0c79bb0604c104a5fb6f4eb0703f3154bb3db1830180549190941691161790915590517f036b6384b5eca791c62761152d0c79bb0604c104a5fb6f4eb0703f3154bb3db2909101558251839083908110611003576110036118de565b602002602001015160001415806110345750828181518110611027576110276118de565b6020026020010151600014155b610e5b57611040611161565b61104957600080fd5b6040517fc8f9da615631f09888fe5c6596c3fafaa6608feaf329f75a5d92bdab1b6438b290600090a1505050565b60058181548110610a9757600080fd5b600080805b83518110156110e4578382815181106110a7576110a76118de565b60200260200101518482815181106110c1576110c16118de565b6020026020010151126110d2578091505b806110dc81611890565b91505061108c565b5092915050565b600080805b83518110156110e45783828151811061110b5761110b6118de565b6020026020010151848281518110611125576111256118de565b60200260200101511215611137578091505b8061114181611890565b9150506110f0565b6000818312611158578161115a565b825b9392505050565b6000805b60055481101561137457600154600580546001600160a01b03909216916323b872dd919084908110611199576111996118de565b6000918252602090912060039091020154600580546001600160a01b0390921691859081106111ca576111ca6118de565b906000526020600020906003020160010160009054906101000a90046001600160a01b031660058581548110611202576112026118de565b60009182526020909120600260039092020101546040516001600160e01b031960e086901b1681526001600160a01b0393841660048201529290911660248301526044820152606401602060405180830381600087803b15801561126557600080fd5b505af1158015611279573d6000803e3d6000fd5b505050506040513d601f19601f8201168201806040525081019061129d919061154a565b50600581815481106112b1576112b16118de565b6000918252602090912060016003909202010154600580546001600160a01b0390921691839081106112e5576112e56118de565b6000918252602090912060039091020154600580546001600160a01b03909216917f7db7852b30fc413c4a90995f03d9f21e64c45d0ddc8324a8ce4c730a051cbf82919085908110611339576113396118de565b90600052602060002090600302016002015460405161135a91815260200190565b60405180910390a38061136c81611890565b915050611165565b506001905090565b82805461138890611855565b90600052602060002090601f0160209004810192826113aa57600085556113f0565b82601f106113c357805160ff19168380011785556113f0565b828001600101855582156113f0579182015b828111156113f05782518255916020019190600101906113d5565b506113fc929150611400565b5090565b5b808211156113fc5760008155600101611401565b80356001600160a01b038116811461142c57600080fd5b919050565b60006020828403121561144357600080fd5b61115a82611415565b60008060006060848603121561146157600080fd5b61146a84611415565b925061147860208501611415565b9150604084013590509250925092565b6000806040838503121561149b57600080fd5b6114a483611415565b9150602083013567ffffffffffffffff808211156114c157600080fd5b818501915085601f8301126114d557600080fd5b8135818111156114e7576114e76118f4565b604051601f8201601f19908116603f0116810190838211818310171561150f5761150f6118f4565b8160405282815288602084870101111561152857600080fd5b8260208601602083013760006020848301015280955050505050509250929050565b60006020828403121561155c57600080fd5b8151801515811461115a57600080fd5b60006020828403121561157e57600080fd5b5035919050565b60006020828403121561159757600080fd5b5051919050565b600081518084526020808501945080840160005b838110156115d75781516001600160a01b0316875295820195908201906001016115b2565b509495945050505050565b600081518084526020808501945080840160005b838110156115d7578151875295820195908201906001016115f6565b6000815180845261162a816020860160208601611825565b601f01601f19169290920160200192915050565b60008251611650818460208701611825565b9190910192915050565b6001600160a01b038316815260406020820181905260009061167e90830184611612565b949350505050565b60208082526022908201527f457870656e7365547261636b65723a20414354494f4e5f4e4f545f414c4c4f57604082015261115160f21b606082015260800190565b60006101008a8352602060018060a01b038b16818501528160408501526116f18285018b61159e565b915083820360608501528189518084528284019150828160051b850101838c0160005b8381101561174257601f19878403018552611730838351611612565b94860194925090850190600101611714565b50508681036080880152611756818c6115e2565b94505050505082810360a084015261176e818761159e565b905082810360c0840152611782818661159e565b905082810360e084015261179681856115e2565b9b9a5050505050505050505050565b600080821280156001600160ff1b03849003851316156117c7576117c76118c8565b600160ff1b83900384128116156117e0576117e06118c8565b50500190565b60008083128015600160ff1b850184121615611804576118046118c8565b6001600160ff1b038401831381161561181f5761181f6118c8565b50500390565b60005b83811015611840578181015183820152602001611828565b8381111561184f576000848401525b50505050565b600181811c9082168061186957607f821691505b6020821081141561188a57634e487b7160e01b600052602260045260246000fd5b50919050565b60006000198214156118a4576118a46118c8565b5060010190565b6000600160ff1b8214156118c1576118c16118c8565b5060000390565b634e487b7160e01b600052601160045260246000fd5b634e487b7160e01b600052603260045260246000fd5b634e487b7160e01b600052604160045260246000fdfea264697066735822122030fc683a1844849aa6cd0b340f825e4be71788c9fca2ba0db84bf787e7c8628a64736f6c63430008070033a26469706673582212207c5932750f786d0fac95f4b301b0b00da8a46dfcbdf28eb506adfc1368f28f8364736f6c6343000807003360806040523480156200001157600080fd5b5060405162001a0b38038062001a0b833981016040819052620000349162000083565b600180546001600160a01b039384166001600160a01b03199182161790915560068054929093169116179055620000bb565b80516001600160a01b03811681146200007e57600080fd5b919050565b600080604083850312156200009757600080fd5b620000a28362000066565b9150620000b26020840162000066565b90509250929050565b61194080620000cb6000396000f3fe608060405234801561001057600080fd5b50600436106100a95760003560e01c80638e52f97b116100715780638e52f97b14610166578063a03e31d114610187578063b68feb84146101c0578063ca77ab65146101d3578063f30b5069146101db578063fc0c546a146101ee57600080fd5b806309e69ede146100ae5780634572bc88146100f25780635a9b0b891461010a57806366088687146101265780638da5cb5b1461013b575b600080fd5b6100d86100bc366004611431565b6002602052600090815260409020805460019091015460ff1682565b604080519283529015156020830152015b60405180910390f35b6000546100fc9081565b6040519081526020016100e9565b610112610201565b6040516100e99897969594939291906116c8565b61013961013436600461144c565b610706565b005b60065461014e906001600160a01b031681565b6040516001600160a01b0390911681526020016100e9565b61017961017436600461156c565b6109d8565b6040516100e992919061165a565b61019a61019536600461156c565b610a87565b604080516001600160a01b039485168152939092166020840152908201526060016100e9565b6101396101ce366004611488565b610ac7565b610139610c65565b61019a6101e936600461156c565b611077565b60015461014e906001600160a01b031681565b600080606080606080606080600061021860005490565b67ffffffffffffffff811115610230576102306118f4565b604051908082528060200260200182016040528015610259578160200160208202803683370190505b509050600061026760005490565b67ffffffffffffffff81111561027f5761027f6118f4565b6040519080825280602002602001820160405280156102b257816020015b606081526020019060019003908161029d5790505b50905060006102c060005490565b67ffffffffffffffff8111156102d8576102d86118f4565b604051908082528060200260200182016040528015610301578160200160208202803683370190505b50905060005b6000548110156104cd5760008181526003602052604090205484516001600160a01b0390911690859083908110610340576103406118de565b6001600160a01b039092166020928302919091018201526000828152600390915260409020600101805461037390611855565b80601f016020809104026020016040519081016040528092919081815260200182805461039f90611855565b80156103ec5780601f106103c1576101008083540402835291602001916103ec565b820191906000526020600020905b8154815290600101906020018083116103cf57829003601f168201915b5050505050838281518110610403576104036118de565b602090810291909101810191909152600154600083815260039092526040918290205491516370a0823160e01b81526001600160a01b0392831660048201529116906370a082319060240160206040518083038186803b15801561046657600080fd5b505afa15801561047a573d6000803e3d6000fd5b505050506040513d601f19601f8201168201806040525081019061049e9190611585565b8282815181106104b0576104b06118de565b6020908102919091010152806104c581611890565b915050610307565b5060045460009067ffffffffffffffff8111156104ec576104ec6118f4565b604051908082528060200260200182016040528015610515578160200160208202803683370190505b5060045490915060009067ffffffffffffffff811115610537576105376118f4565b604051908082528060200260200182016040528015610560578160200160208202803683370190505b5060045490915060009067ffffffffffffffff811115610582576105826118f4565b6040519080825280602002602001820160405280156105ab578160200160208202803683370190505b50905060005b6004548110156106dd57600481815481106105ce576105ce6118de565b600091825260209091206003909102015484516001600160a01b03909116908590839081106105ff576105ff6118de565b60200260200101906001600160a01b031690816001600160a01b03168152505060048181548110610632576106326118de565b906000526020600020906003020160010160009054906101000a90046001600160a01b0316838281518110610669576106696118de565b60200260200101906001600160a01b031690816001600160a01b0316815250506004818154811061069c5761069c6118de565b9060005260206000209060030201600201548282815181106106c0576106c06118de565b6020908102919091010152806106d581611890565b9150506105b1565b50600054600154909f6001600160a01b039091169e50959c50939a509198509650945092509050565b6006546001600160a01b031633146107395760405162461bcd60e51b815260040161073090611686565b60405180910390fd5b6001600160a01b03831660009081526002602052604090206001015460ff16801561077f57506001600160a01b03821660009081526002602052604090206001015460ff165b6107d95760405162461bcd60e51b815260206004820152602560248201527f4f6e65206f72206d6f7265207061727469636970616e7473206172656e277420604482015264185919195960da1b6064820152608401610730565b6001546040516370a0823160e01b81526001600160a01b038581166004830152909116906370a082319060240160206040518083038186803b15801561081e57600080fd5b505afa158015610832573d6000803e3d6000fd5b505050506040513d601f19601f820116820180604052508101906108569190611585565b8113156108c45760405162461bcd60e51b815260206004820152603660248201527f4572726f723a20446562746f722062616c616e63652073686f756c642062652060448201527519dc99585d195c881d1a185b881a1a5cc81919589a5d60521b6064820152608401610730565b604080516060810182526001600160a01b038086168083528582166020840181815284860187815260048054600181018255600091909152865160039091027f8a35acfbc15ff81a39ae7d344fd709f28e8600b4aa8c65c6b64bfe7fe36bd19b810180549288166001600160a01b031993841617905592517f8a35acfbc15ff81a39ae7d344fd709f28e8600b4aa8c65c6b64bfe7fe36bd19c840180549190971691161790945592517f8a35acfbc15ff81a39ae7d344fd709f28e8600b4aa8c65c6b64bfe7fe36bd19d909301929092559251919290917fbd1101f01e5043b442d7312228b63cae3ef6a1488a210f0b9c13887077c8b508906109ca9086815260200190565b60405180910390a350505050565b600360205260009081526040902080546001820180546001600160a01b039092169291610a0490611855565b80601f0160208091040260200160405190810160405280929190818152602001828054610a3090611855565b8015610a7d5780601f10610a5257610100808354040283529160200191610a7d565b820191906000526020600020905b815481529060010190602001808311610a6057829003601f168201915b5050505050905082565b60048181548110610a9757600080fd5b60009182526020909120600390910201805460018201546002909201546001600160a01b03918216935091169083565b6006546001600160a01b03163314610af15760405162461bcd60e51b815260040161073090611686565b6001600160a01b03821660009081526002602052604090206001015460ff1615610b6f5760405162461bcd60e51b815260206004820152602960248201527f457870656e7365547261636b65723a205041525449434950414e545f414c524560448201526810511657d05111115160ba1b6064820152608401610730565b6040518060400160405280610b8360005490565b8152600160209182018190526001600160a01b0385811660008181526002855260408082208751815596860151968501805460ff191697151597909717909655855180870187529182528185018781528154825260038652959020815181546001600160a01b03191693169290921782559351805185949293610c0b9390850192019061137c565b50506000805460010190555081604051610c25919061163e565b604051908190038120906001600160a01b038516907f54d9fcf3da31043daf69e0a8ad35eaf7cfae552733f792dc3d95805eb45bfec290600090a3505050565b6006546001600160a01b03163314610c8f5760405162461bcd60e51b815260040161073090611686565b6000805467ffffffffffffffff811115610cab57610cab6118f4565b604051908082528060200260200182016040528015610cd4578160200160208202803683370190505b50905060005b600054811015610d15576000828281518110610cf857610cf86118de565b602090810291909101015280610d0d81611890565b915050610cda565b5060005b600454811015610e565760048181548110610d3657610d366118de565b906000526020600020906003020160020154826002600060048581548110610d6057610d606118de565b600091825260208083206003909202909101546001600160a01b0316835282019290925260400190205481518110610d9a57610d9a6118de565b60200260200101818151610dae91906117e6565b9052506004805482908110610dc557610dc56118de565b906000526020600020906003020160020154826002600060048581548110610def57610def6118de565b60009182526020808320600160039093020191909101546001600160a01b0316835282019290925260400190205481518110610e2d57610e2d6118de565b60200260200101818151610e4191906117a5565b90525080610e4e81611890565b915050610d19565b506000805b610e6483611087565b9150610e6f836110eb565b90506000610eb8848481518110610e8857610e886118de565b6020026020010151858481518110610ea257610ea26118de565b6020026020010151610eb3906118ab565b611149565b905080848481518110610ecd57610ecd6118de565b60200260200101818151610ee191906117e6565b90525083518190859084908110610efa57610efa6118de565b60200260200101818151610f0e91906117a5565b90525060408051606081018252600084815260036020818152848320546001600160a01b039081168552888452828252858420548116918501918252948401958652600580546001810182559352925191027f036b6384b5eca791c62761152d0c79bb0604c104a5fb6f4eb0703f3154bb3db0810180549285166001600160a01b031993841617905591517f036b6384b5eca791c62761152d0c79bb0604c104a5fb6f4eb0703f3154bb3db1830180549190941691161790915590517f036b6384b5eca791c62761152d0c79bb0604c104a5fb6f4eb0703f3154bb3db2909101558251839083908110611003576110036118de565b602002602001015160001415806110345750828181518110611027576110276118de565b6020026020010151600014155b610e5b57611040611161565b61104957600080fd5b6040517fc8f9da615631f09888fe5c6596c3fafaa6608feaf329f75a5d92bdab1b6438b290600090a1505050565b60058181548110610a9757600080fd5b600080805b83518110156110e4578382815181106110a7576110a76118de565b60200260200101518482815181106110c1576110c16118de565b6020026020010151126110d2578091505b806110dc81611890565b91505061108c565b5092915050565b600080805b83518110156110e45783828151811061110b5761110b6118de565b6020026020010151848281518110611125576111256118de565b60200260200101511215611137578091505b8061114181611890565b9150506110f0565b6000818312611158578161115a565b825b9392505050565b6000805b60055481101561137457600154600580546001600160a01b03909216916323b872dd919084908110611199576111996118de565b6000918252602090912060039091020154600580546001600160a01b0390921691859081106111ca576111ca6118de565b906000526020600020906003020160010160009054906101000a90046001600160a01b031660058581548110611202576112026118de565b60009182526020909120600260039092020101546040516001600160e01b031960e086901b1681526001600160a01b0393841660048201529290911660248301526044820152606401602060405180830381600087803b15801561126557600080fd5b505af1158015611279573d6000803e3d6000fd5b505050506040513d601f19601f8201168201806040525081019061129d919061154a565b50600581815481106112b1576112b16118de565b6000918252602090912060016003909202010154600580546001600160a01b0390921691839081106112e5576112e56118de565b6000918252602090912060039091020154600580546001600160a01b03909216917f7db7852b30fc413c4a90995f03d9f21e64c45d0ddc8324a8ce4c730a051cbf82919085908110611339576113396118de565b90600052602060002090600302016002015460405161135a91815260200190565b60405180910390a38061136c81611890565b915050611165565b506001905090565b82805461138890611855565b90600052602060002090601f0160209004810192826113aa57600085556113f0565b82601f106113c357805160ff19168380011785556113f0565b828001600101855582156113f0579182015b828111156113f05782518255916020019190600101906113d5565b506113fc929150611400565b5090565b5b808211156113fc5760008155600101611401565b80356001600160a01b038116811461142c57600080fd5b919050565b60006020828403121561144357600080fd5b61115a82611415565b60008060006060848603121561146157600080fd5b61146a84611415565b925061147860208501611415565b9150604084013590509250925092565b6000806040838503121561149b57600080fd5b6114a483611415565b9150602083013567ffffffffffffffff808211156114c157600080fd5b818501915085601f8301126114d557600080fd5b8135818111156114e7576114e76118f4565b604051601f8201601f19908116603f0116810190838211818310171561150f5761150f6118f4565b8160405282815288602084870101111561152857600080fd5b8260208601602083013760006020848301015280955050505050509250929050565b60006020828403121561155c57600080fd5b8151801515811461115a57600080fd5b60006020828403121561157e57600080fd5b5035919050565b60006020828403121561159757600080fd5b5051919050565b600081518084526020808501945080840160005b838110156115d75781516001600160a01b0316875295820195908201906001016115b2565b509495945050505050565b600081518084526020808501945080840160005b838110156115d7578151875295820195908201906001016115f6565b6000815180845261162a816020860160208601611825565b601f01601f19169290920160200192915050565b60008251611650818460208701611825565b9190910192915050565b6001600160a01b038316815260406020820181905260009061167e90830184611612565b949350505050565b60208082526022908201527f457870656e7365547261636b65723a20414354494f4e5f4e4f545f414c4c4f57604082015261115160f21b606082015260800190565b60006101008a8352602060018060a01b038b16818501528160408501526116f18285018b61159e565b915083820360608501528189518084528284019150828160051b850101838c0160005b8381101561174257601f19878403018552611730838351611612565b94860194925090850190600101611714565b50508681036080880152611756818c6115e2565b94505050505082810360a084015261176e818761159e565b905082810360c0840152611782818661159e565b905082810360e084015261179681856115e2565b9b9a5050505050505050505050565b600080821280156001600160ff1b03849003851316156117c7576117c76118c8565b600160ff1b83900384128116156117e0576117e06118c8565b50500190565b60008083128015600160ff1b850184121615611804576118046118c8565b6001600160ff1b038401831381161561181f5761181f6118c8565b50500390565b60005b83811015611840578181015183820152602001611828565b8381111561184f576000848401525b50505050565b600181811c9082168061186957607f821691505b6020821081141561188a57634e487b7160e01b600052602260045260246000fd5b50919050565b60006000198214156118a4576118a46118c8565b5060010190565b6000600160ff1b8214156118c1576118c16118c8565b5060000390565b634e487b7160e01b600052601160045260246000fd5b634e487b7160e01b600052603260045260246000fd5b634e487b7160e01b600052604160045260246000fdfea264697066735822122030fc683a1844849aa6cd0b340f825e4be71788c9fca2ba0db84bf787e7c8628a64736f6c63430008070033",
  "immutableReferences": {},
  "source": "// SPDX-License-Identifier: MIT\npragma solidity ^0.8.0;\n\nimport \"@openzeppelin/contracts/access/Ownable.sol\";\nimport \"@openzeppelin/contracts/utils/Counters.sol\";\n\nimport \"./ExpenseTracker.sol\";\n\ncontract Factory is Ownable {\n  using Counters for Counters.Counter;\n\n  Counters.Counter public trackerCounter;\n\n  address[] public trackers;\n\n  constructor(address tokenAddress) {\n    ExpenseTracker expenseTracker = new ExpenseTracker(tokenAddress, owner());\n    trackers.push(address(expenseTracker));\n    trackerCounter.increment();\n  }\n\n  function addTracker(address tokenAddress) external onlyOwner {\n    ExpenseTracker expenseTracker = new ExpenseTracker(tokenAddress, owner());\n    trackers.push(address(expenseTracker));\n    trackerCounter.increment();\n  }\n\n  function getTrackers() external view returns (address[] memory) {\n    return trackers;\n  }\n}\n",
  "sourcePath": "/Users/niccolofant/Desktop/assignment/core/contracts/Factory.sol",
  "compiler": {
    "name": "solc",
    "version": "0.8.7+commit.e28d00a7.Emscripten.clang"
  },
  "schemaVersion": "3.4.3",
  "updatedAt": "2022-01-23T15:18:34.953Z",
  "networkType": "ethereum",
  "devdoc": {
    "kind": "dev",
    "methods": {
      "owner()": {
        "details": "Returns the address of the current owner."
      },
      "renounceOwnership()": {
        "details": "Leaves the contract without owner. It will not be possible to call `onlyOwner` functions anymore. Can only be called by the current owner. NOTE: Renouncing ownership will leave the contract without an owner, thereby removing any functionality that is only available to the owner."
      },
      "transferOwnership(address)": {
        "details": "Transfers ownership of the contract to a new account (`newOwner`). Can only be called by the current owner."
      }
    },
    "version": 1
  },
  "userdoc": {
    "kind": "user",
    "methods": {},
    "version": 1
  }
}